{"abi":[{"type":"constructor","inputs":[{"name":"_poolManager","type":"address","internalType":"contract IPoolManager"}],"stateMutability":"nonpayable"},{"type":"function","name":"lockAcquired","inputs":[{"name":"data","type":"bytes","internalType":"bytes"}],"outputs":[{"name":"","type":"bytes","internalType":"bytes"}],"stateMutability":"nonpayable"},{"type":"function","name":"poolManager","inputs":[],"outputs":[{"name":"","type":"address","internalType":"contract IPoolManager"}],"stateMutability":"view"}],"bytecode":{"object":"0x60a060405234801561000f575f5ffd5b50604051610b5f380380610b5f833981810160405281019061003191906100da565b8073ffffffffffffffffffffffffffffffffffffffff1660808173ffffffffffffffffffffffffffffffffffffffff168152505050610105565b5f5ffd5b5f73ffffffffffffffffffffffffffffffffffffffff82169050919050565b5f6100988261006f565b9050919050565b5f6100a98261008e565b9050919050565b6100b98161009f565b81146100c3575f5ffd5b50565b5f815190506100d4816100b0565b92915050565b5f602082840312156100ef576100ee61006b565b5b5f6100fc848285016100c6565b91505092915050565b608051610a3561012a5f395f8181608a0152818161013401526102560152610a355ff3fe608060405234801561000f575f5ffd5b5060043610610034575f3560e01c8063ab6291fe14610038578063dc4c90d314610068575b5f5ffd5b610052600480360381019061004d91906102ea565b610086565b60405161005f91906103a5565b60405180910390f35b610070610254565b60405161007d919061043f565b60405180910390f35b60607f000000000000000000000000000000000000000000000000000000000000000073ffffffffffffffffffffffffffffffffffffffff163373ffffffffffffffffffffffffffffffffffffffff1614610116576040517f08c379a000000000000000000000000000000000000000000000000000000000815260040161010d906104b2565b60405180910390fd5b5f5f5f5f8686810190610129919061075c565b93509350935093505f7f000000000000000000000000000000000000000000000000000000000000000090505f8173ffffffffffffffffffffffffffffffffffffffff1663f3cd914c87604051806060016040528088151581526020018981526020015f73ffffffffffffffffffffffffffffffffffffffff16815250866040516020016101b791906107d0565b6040516020818303038152906040526040518463ffffffff1660e01b81526004016101e493929190610923565b6020604051808303815f875af1158015610200573d5f5f3e3d5ffd5b505050506040513d601f19601f82011682018060405250810190610224919061098b565b90508060405160200161023791906109e6565b604051602081830303815290604052965050505050505092915050565b7f000000000000000000000000000000000000000000000000000000000000000081565b5f604051905090565b5f5ffd5b5f5ffd5b5f5ffd5b5f5ffd5b5f5ffd5b5f5f83601f8401126102aa576102a9610289565b5b8235905067ffffffffffffffff8111156102c7576102c661028d565b5b6020830191508360018202830111156102e3576102e2610291565b5b9250929050565b5f5f60208385031215610300576102ff610281565b5b5f83013567ffffffffffffffff81111561031d5761031c610285565b5b61032985828601610295565b92509250509250929050565b5f81519050919050565b5f82825260208201905092915050565b8281835e5f83830152505050565b5f601f19601f8301169050919050565b5f61037782610335565b610381818561033f565b935061039181856020860161034f565b61039a8161035d565b840191505092915050565b5f6020820190508181035f8301526103bd818461036d565b905092915050565b5f73ffffffffffffffffffffffffffffffffffffffff82169050919050565b5f819050919050565b5f6104076104026103fd846103c5565b6103e4565b6103c5565b9050919050565b5f610418826103ed565b9050919050565b5f6104298261040e565b9050919050565b6104398161041f565b82525050565b5f6020820190506104525f830184610430565b92915050565b5f82825260208201905092915050565b7f4f6e6c7920506f6f6c4d616e61676572000000000000000000000000000000005f82015250565b5f61049c601083610458565b91506104a782610468565b602082019050919050565b5f6020820190508181035f8301526104c981610490565b9050919050565b5f5ffd5b7f4e487b71000000000000000000000000000000000000000000000000000000005f52604160045260245ffd5b61050a8261035d565b810181811067ffffffffffffffff82111715610529576105286104d4565b5b80604052505050565b5f61053b610278565b90506105478282610501565b919050565b5f610556826103c5565b9050919050565b6105668161054c565b8114610570575f5ffd5b50565b5f813590506105818161055d565b92915050565b5f62ffffff82169050919050565b61059e81610587565b81146105a8575f5ffd5b50565b5f813590506105b981610595565b92915050565b5f8160020b9050919050565b6105d4816105bf565b81146105de575f5ffd5b50565b5f813590506105ef816105cb565b92915050565b5f6105ff8261054c565b9050919050565b61060f816105f5565b8114610619575f5ffd5b50565b5f8135905061062a81610606565b92915050565b5f60a08284031215610645576106446104d0565b5b61064f60a0610532565b90505f61065e84828501610573565b5f83015250602061067184828501610573565b6020830152506040610685848285016105ab565b6040830152506060610699848285016105e1565b60608301525060806106ad8482850161061c565b60808301525092915050565b5f819050919050565b6106cb816106b9565b81146106d5575f5ffd5b50565b5f813590506106e6816106c2565b92915050565b5f8115159050919050565b610700816106ec565b811461070a575f5ffd5b50565b5f8135905061071b816106f7565b92915050565b5f61072b826103c5565b9050919050565b61073b81610721565b8114610745575f5ffd5b50565b5f8135905061075681610732565b92915050565b5f5f5f5f610100858703121561077557610774610281565b5b5f61078287828801610630565b94505060a0610793878288016106d8565b93505060c06107a48782880161070d565b92505060e06107b587828801610748565b91505092959194509250565b6107ca8161054c565b82525050565b5f6020820190506107e35f8301846107c1565b92915050565b5f6107f38261040e565b9050919050565b610803816107e9565b82525050565b61081281610587565b82525050565b610821816105bf565b82525050565b5f6108318261040e565b9050919050565b61084181610827565b82525050565b60a082015f82015161085b5f8501826107fa565b50602082015161086e60208501826107fa565b5060408201516108816040850182610809565b5060608201516108946060850182610818565b5060808201516108a76080850182610838565b50505050565b6108b6816106ec565b82525050565b5f819050919050565b6108ce816108bc565b82525050565b6108dd816103c5565b82525050565b606082015f8201516108f75f8501826108ad565b50602082015161090a60208501826108c5565b50604082015161091d60408501826108d4565b50505050565b5f610120820190506109375f830186610847565b61094460a08301856108e3565b818103610100830152610957818461036d565b9050949350505050565b61096a816108bc565b8114610974575f5ffd5b50565b5f8151905061098581610961565b92915050565b5f602082840312156109a05761099f610281565b5b5f6109ad84828501610977565b91505092915050565b5f6109d06109cb6109c6846108bc565b6103e4565b6108bc565b9050919050565b6109e0816109b6565b82525050565b5f6020820190506109f95f8301846109d7565b9291505056fea264697066735822122009bdf31eb86f6c891c0e453ed12e728639f7eb627131447c2af1cad2cddf1f9464736f6c634300081c0033","linkReferences":{}},"methodIdentifiers":{"lockAcquired(bytes)":"ab6291fe","poolManager()":"dc4c90d3"},"id":1}