{"abi":[{"type":"constructor","inputs":[{"name":"_poolManager","type":"address","internalType":"address"},{"name":"_swapHook","type":"address","internalType":"address"}],"stateMutability":"nonpayable"},{"type":"function","name":"addStablecoin","inputs":[{"name":"token","type":"address","internalType":"address"}],"outputs":[],"stateMutability":"nonpayable"},{"type":"function","name":"isAllowedStablecoin","inputs":[{"name":"","type":"address","internalType":"address"}],"outputs":[{"name":"","type":"bool","internalType":"bool"}],"stateMutability":"view"},{"type":"function","name":"owner","inputs":[],"outputs":[{"name":"","type":"address","internalType":"address"}],"stateMutability":"view"},{"type":"function","name":"pay","inputs":[{"name":"to","type":"address","internalType":"address"},{"name":"amount","type":"uint256","internalType":"uint256"},{"name":"inputToken","type":"address","internalType":"address"}],"outputs":[],"stateMutability":"nonpayable"},{"type":"function","name":"poolManager","inputs":[],"outputs":[{"name":"","type":"address","internalType":"contract IPoolManager"}],"stateMutability":"view"},{"type":"function","name":"preferredStablecoin","inputs":[{"name":"","type":"address","internalType":"address"}],"outputs":[{"name":"","type":"address","internalType":"address"}],"stateMutability":"view"},{"type":"function","name":"removeStablecoin","inputs":[{"name":"token","type":"address","internalType":"address"}],"outputs":[],"stateMutability":"nonpayable"},{"type":"function","name":"renounceOwnership","inputs":[],"outputs":[],"stateMutability":"nonpayable"},{"type":"function","name":"setPreferredStablecoin","inputs":[{"name":"token","type":"address","internalType":"address"}],"outputs":[],"stateMutability":"nonpayable"},{"type":"function","name":"swapHook","inputs":[],"outputs":[{"name":"","type":"address","internalType":"contract SwapExecutorHook"}],"stateMutability":"view"},{"type":"function","name":"transferOwnership","inputs":[{"name":"newOwner","type":"address","internalType":"address"}],"outputs":[],"stateMutability":"nonpayable"},{"type":"event","name":"OwnershipTransferred","inputs":[{"name":"previousOwner","type":"address","indexed":true,"internalType":"address"},{"name":"newOwner","type":"address","indexed":true,"internalType":"address"}],"anonymous":false},{"type":"event","name":"PaymentExecuted","inputs":[{"name":"from","type":"address","indexed":true,"internalType":"address"},{"name":"to","type":"address","indexed":true,"internalType":"address"},{"name":"inputToken","type":"address","indexed":true,"internalType":"address"},{"name":"outputToken","type":"address","indexed":false,"internalType":"address"},{"name":"inputAmount","type":"uint256","indexed":false,"internalType":"uint256"},{"name":"outputAmount","type":"uint256","indexed":false,"internalType":"uint256"}],"anonymous":false},{"type":"event","name":"PreferenceSet","inputs":[{"name":"user","type":"address","indexed":true,"internalType":"address"},{"name":"token","type":"address","indexed":true,"internalType":"address"}],"anonymous":false},{"type":"event","name":"StablecoinAdded","inputs":[{"name":"token","type":"address","indexed":true,"internalType":"address"}],"anonymous":false},{"type":"event","name":"StablecoinRemoved","inputs":[{"name":"token","type":"address","indexed":true,"internalType":"address"}],"anonymous":false},{"type":"error","name":"OwnableInvalidOwner","inputs":[{"name":"owner","type":"address","internalType":"address"}]},{"type":"error","name":"OwnableUnauthorizedAccount","inputs":[{"name":"account","type":"address","internalType":"address"}]},{"type":"error","name":"SafeERC20FailedOperation","inputs":[{"name":"token","type":"address","internalType":"address"}]}],"bytecode":{"object":"0x60c060405234801561000f575f5ffd5b5060405161244b38038061244b8339818101604052810190610031919061053a565b335f73ffffffffffffffffffffffffffffffffffffffff168173ffffffffffffffffffffffffffffffffffffffff16036100a2575f6040517f1e4fbdf70000000000000000000000000000000000000000000000000000000081526004016100999190610587565b60405180910390fd5b6100b18161028960201b60201c565b505f73ffffffffffffffffffffffffffffffffffffffff168273ffffffffffffffffffffffffffffffffffffffff1603610120576040517f08c379a0000000000000000000000000000000000000000000000000000000008152600401610117906105fa565b60405180910390fd5b5f73ffffffffffffffffffffffffffffffffffffffff168173ffffffffffffffffffffffffffffffffffffffff160361018e576040517f08c379a000000000000000000000000000000000000000000000000000000000815260040161018590610662565b60405180910390fd5b8173ffffffffffffffffffffffffffffffffffffffff1660808173ffffffffffffffffffffffffffffffffffffffff16815250508073ffffffffffffffffffffffffffffffffffffffff1660a08173ffffffffffffffffffffffffffffffffffffffff168152505061021973833589fcd6edb6e08f4c7c32d4f71b54bda0291361034a60201b60201c565b61023c7360a3e35cc302bfa44cb288bc5a4f316fdb1adb4261034a60201b60201c565b61025f73a411c9aa00e020e4f88bc19996d29c5b7adb4acf61034a60201b60201c565b61028273e9185ee218cae427af7b9764a011bb89fea761b461034a60201b60201c565b5050610750565b5f5f5f9054906101000a900473ffffffffffffffffffffffffffffffffffffffff169050815f5f6101000a81548173ffffffffffffffffffffffffffffffffffffffff021916908373ffffffffffffffffffffffffffffffffffffffff1602179055508173ffffffffffffffffffffffffffffffffffffffff168173ffffffffffffffffffffffffffffffffffffffff167f8be0079c531659141344cd1fd0a4f28419497f9722a3daafe3b4186f6b6457e060405160405180910390a35050565b5f73ffffffffffffffffffffffffffffffffffffffff168173ffffffffffffffffffffffffffffffffffffffff16036103b8576040517f08c379a00000000000000000000000000000000000000000000000000000000081526004016103af906106ca565b60405180910390fd5b60015f8273ffffffffffffffffffffffffffffffffffffffff1673ffffffffffffffffffffffffffffffffffffffff1681526020019081526020015f205f9054906101000a900460ff1615610442576040517f08c379a000000000000000000000000000000000000000000000000000000000815260040161043990610732565b60405180910390fd5b6001805f8373ffffffffffffffffffffffffffffffffffffffff1673ffffffffffffffffffffffffffffffffffffffff1681526020019081526020015f205f6101000a81548160ff0219169083151502179055508073ffffffffffffffffffffffffffffffffffffffff167f3db297c09c19972ba6a701ff373ab97e21ff1e4992e863c7abe44e9b2fed084760405160405180910390a250565b5f5ffd5b5f73ffffffffffffffffffffffffffffffffffffffff82169050919050565b5f610509826104e0565b9050919050565b610519816104ff565b8114610523575f5ffd5b50565b5f8151905061053481610510565b92915050565b5f5f604083850312156105505761054f6104dc565b5b5f61055d85828601610526565b925050602061056e85828601610526565b9150509250929050565b610581816104ff565b82525050565b5f60208201905061059a5f830184610578565b92915050565b5f82825260208201905092915050565b7f496e76616c696420506f6f6c4d616e61676572000000000000000000000000005f82015250565b5f6105e46013836105a0565b91506105ef826105b0565b602082019050919050565b5f6020820190508181035f830152610611816105d8565b9050919050565b7f496e76616c696420486f6f6b00000000000000000000000000000000000000005f82015250565b5f61064c600c836105a0565b915061065782610618565b602082019050919050565b5f6020820190508181035f83015261067981610640565b9050919050565b7f5a65726f206164647265737300000000000000000000000000000000000000005f82015250565b5f6106b4600c836105a0565b91506106bf82610680565b602082019050919050565b5f6020820190508181035f8301526106e1816106a8565b9050919050565b7f416c726561647920616c6c6f77656400000000000000000000000000000000005f82015250565b5f61071c600f836105a0565b9150610727826106e8565b602082019050919050565b5f6020820190508181035f83015261074981610710565b9050919050565b60805160a051611cc56107865f395f81816105240152610ed001525f818161054801528181610e130152610e940152611cc55ff3fe608060405234801561000f575f5ffd5b50600436106100a7575f3560e01c80638da5cb5b1161006f5780638da5cb5b14610139578063998490f514610157578063c2dbba5f14610187578063dc4c90d3146101a5578063f0fcc6bb146101c3578063f2fde38b146101df576100a7565b8063024fce40146100ab5780630418945a146100c75780632258f8f8146100e35780633b947d2b14610113578063715018a61461012f575b5f5ffd5b6100c560048036038101906100c091906111ae565b6101fb565b005b6100e160048036038101906100dc91906111ae565b61035c565b005b6100fd60048036038101906100f891906111ae565b610370565b60405161010a91906111f3565b60405180910390f35b61012d600480360381019061012891906111ae565b61038d565b005b6101376104b8565b005b6101416104cb565b60405161014e919061121b565b60405180910390f35b610171600480360381019061016c91906111ae565b6104f2565b60405161017e919061121b565b60405180910390f35b61018f610522565b60405161019c919061128f565b60405180910390f35b6101ad610546565b6040516101ba91906112c8565b60405180910390f35b6101dd60048036038101906101d89190611314565b61056a565b005b6101f960048036038101906101f491906111ae565b6108b6565b005b60015f8273ffffffffffffffffffffffffffffffffffffffff1673ffffffffffffffffffffffffffffffffffffffff1681526020019081526020015f205f9054906101000a900460ff16610284576040517f08c379a000000000000000000000000000000000000000000000000000000000815260040161027b906113be565b60405180910390fd5b8060025f3373ffffffffffffffffffffffffffffffffffffffff1673ffffffffffffffffffffffffffffffffffffffff1681526020019081526020015f205f6101000a81548173ffffffffffffffffffffffffffffffffffffffff021916908373ffffffffffffffffffffffffffffffffffffffff1602179055508073ffffffffffffffffffffffffffffffffffffffff163373ffffffffffffffffffffffffffffffffffffffff167f94751bc86f1de6164d5a59b5dc70310aa875f3b203d1d3123552119d90fe46fa60405160405180910390a350565b61036461093a565b61036d816109c1565b50565b6001602052805f5260405f205f915054906101000a900460ff1681565b61039561093a565b60015f8273ffffffffffffffffffffffffffffffffffffffff1673ffffffffffffffffffffffffffffffffffffffff1681526020019081526020015f205f9054906101000a900460ff1661041e576040517f08c379a000000000000000000000000000000000000000000000000000000000815260040161041590611426565b60405180910390fd5b5f60015f8373ffffffffffffffffffffffffffffffffffffffff1673ffffffffffffffffffffffffffffffffffffffff1681526020019081526020015f205f6101000a81548160ff0219169083151502179055508073ffffffffffffffffffffffffffffffffffffffff167f3302a1b37f04242bb55603f5449e7ecd690a35eef08ba1353c48c20e2aae9cda60405160405180910390a250565b6104c061093a565b6104c95f610b53565b565b5f5f5f9054906101000a900473ffffffffffffffffffffffffffffffffffffffff16905090565b6002602052805f5260405f205f915054906101000a900473ffffffffffffffffffffffffffffffffffffffff1681565b7f000000000000000000000000000000000000000000000000000000000000000081565b7f000000000000000000000000000000000000000000000000000000000000000081565b5f73ffffffffffffffffffffffffffffffffffffffff168373ffffffffffffffffffffffffffffffffffffffff16036105d8576040517f08c379a00000000000000000000000000000000000000000000000000000000081526004016105cf9061148e565b60405180910390fd5b5f821161061a576040517f08c379a0000000000000000000000000000000000000000000000000000000008152600401610611906114f6565b60405180910390fd5b60015f8273ffffffffffffffffffffffffffffffffffffffff1673ffffffffffffffffffffffffffffffffffffffff1681526020019081526020015f205f9054906101000a900460ff166106a3576040517f08c379a000000000000000000000000000000000000000000000000000000000815260040161069a9061155e565b60405180910390fd5b5f60025f8573ffffffffffffffffffffffffffffffffffffffff1673ffffffffffffffffffffffffffffffffffffffff1681526020019081526020015f205f9054906101000a900473ffffffffffffffffffffffffffffffffffffffff16905060015f8273ffffffffffffffffffffffffffffffffffffffff1673ffffffffffffffffffffffffffffffffffffffff1681526020019081526020015f205f9054906101000a900460ff1661078c576040517f08c379a0000000000000000000000000000000000000000000000000000000008152600401610783906115c6565b60405180910390fd5b6107b93330858573ffffffffffffffffffffffffffffffffffffffff16610c14909392919063ffffffff16565b5f8173ffffffffffffffffffffffffffffffffffffffff168373ffffffffffffffffffffffffffffffffffffffff16036108205761081885858573ffffffffffffffffffffffffffffffffffffffff16610c969092919063ffffffff16565b83905061082f565b61082c83838688610d15565b90505b8273ffffffffffffffffffffffffffffffffffffffff168573ffffffffffffffffffffffffffffffffffffffff163373ffffffffffffffffffffffffffffffffffffffff167f377a0fbc7c58e37c806f65d7ad27f89d6edcb3c5600a92f03de83b615d79d5c18588866040516108a7939291906115f3565b60405180910390a45050505050565b6108be61093a565b5f73ffffffffffffffffffffffffffffffffffffffff168173ffffffffffffffffffffffffffffffffffffffff160361092e575f6040517f1e4fbdf7000000000000000000000000000000000000000000000000000000008152600401610925919061121b565b60405180910390fd5b61093781610b53565b50565b610942611051565b73ffffffffffffffffffffffffffffffffffffffff166109606104cb565b73ffffffffffffffffffffffffffffffffffffffff16146109bf57610983611051565b6040517f118cdaa70000000000000000000000000000000000000000000000000000000081526004016109b6919061121b565b60405180910390fd5b565b5f73ffffffffffffffffffffffffffffffffffffffff168173ffffffffffffffffffffffffffffffffffffffff1603610a2f576040517f08c379a0000000000000000000000000000000000000000000000000000000008152600401610a2690611672565b60405180910390fd5b60015f8273ffffffffffffffffffffffffffffffffffffffff1673ffffffffffffffffffffffffffffffffffffffff1681526020019081526020015f205f9054906101000a900460ff1615610ab9576040517f08c379a0000000000000000000000000000000000000000000000000000000008152600401610ab0906116da565b60405180910390fd5b6001805f8373ffffffffffffffffffffffffffffffffffffffff1673ffffffffffffffffffffffffffffffffffffffff1681526020019081526020015f205f6101000a81548160ff0219169083151502179055508073ffffffffffffffffffffffffffffffffffffffff167f3db297c09c19972ba6a701ff373ab97e21ff1e4992e863c7abe44e9b2fed084760405160405180910390a250565b5f5f5f9054906101000a900473ffffffffffffffffffffffffffffffffffffffff169050815f5f6101000a81548173ffffffffffffffffffffffffffffffffffffffff021916908373ffffffffffffffffffffffffffffffffffffffff1602179055508173ffffffffffffffffffffffffffffffffffffffff168173ffffffffffffffffffffffffffffffffffffffff167f8be0079c531659141344cd1fd0a4f28419497f9722a3daafe3b4186f6b6457e060405160405180910390a35050565b610c90848573ffffffffffffffffffffffffffffffffffffffff166323b872dd868686604051602401610c49939291906116f8565b604051602081830303815290604052915060e01b6020820180517bffffffffffffffffffffffffffffffffffffffffffffffffffffffff8381831617835250505050611058565b50505050565b610d10838473ffffffffffffffffffffffffffffffffffffffff1663a9059cbb8585604051602401610cc992919061172d565b604051602081830303815290604052915060e01b6020820180517bffffffffffffffffffffffffffffffffffffffffffffffffffffffff8381831617835250505050611058565b505050565b5f5f8590505f8590505f6040518060a00160405280610d3485856110f3565b610d3e5783610d40565b845b73ffffffffffffffffffffffffffffffffffffffff168152602001610d6585856110f3565b610d6f5784610d71565b835b73ffffffffffffffffffffffffffffffffffffffff168152602001610bb862ffffff168152602001603c60020b81526020015f73ffffffffffffffffffffffffffffffffffffffff1681525090505f610dca84846110f3565b90505f82888389604051602001610de49493929190611832565b60405160208183030381529060405290508973ffffffffffffffffffffffffffffffffffffffff1663095ea7b37f00000000000000000000000000000000000000000000000000000000000000008a6040518363ffffffff1660e01b8152600401610e5092919061172d565b6020604051808303815f875af1158015610e6c573d5f5f3e3d5ffd5b505050506040513d601f19601f82011682018060405250810190610e9091906118a0565b505f7f000000000000000000000000000000000000000000000000000000000000000073ffffffffffffffffffffffffffffffffffffffff166348c894917f000000000000000000000000000000000000000000000000000000000000000084604051602001610f0192919061193b565b6040516020818303038152906040526040518263ffffffff1660e01b8152600401610f2c9190611969565b5f604051808303815f875af1158015610f47573d5f5f3e3d5ffd5b505050506040513d5f823e3d601f19601f82011682018060405250810190610f6f9190611aa7565b90505f81806020019051810190610f869190611b21565b90505f8415610f9f57610f988261112b565b9050610fab565b610fa882611137565b90505b5f81600f0b12610ff0576040517f08c379a0000000000000000000000000000000000000000000000000000000008152600401610fe790611b96565b60405180910390fd5b80600f0b610ffd90611be1565b98505f8911611041576040517f08c379a000000000000000000000000000000000000000000000000000000000815260040161103890611c71565b60405180910390fd5b5050505050505050949350505050565b5f33905090565b5f5f60205f8451602086015f885af180611077576040513d5f823e3d81fd5b3d92505f519150505f82146110905760018114156110ab565b5f8473ffffffffffffffffffffffffffffffffffffffff163b145b156110ed57836040517f5274afe70000000000000000000000000000000000000000000000000000000081526004016110e4919061121b565b60405180910390fd5b50505050565b5f8173ffffffffffffffffffffffffffffffffffffffff168373ffffffffffffffffffffffffffffffffffffffff1610905092915050565b5f81600f0b9050919050565b5f8160801d9050919050565b5f604051905090565b5f5ffd5b5f5ffd5b5f73ffffffffffffffffffffffffffffffffffffffff82169050919050565b5f61117d82611154565b9050919050565b61118d81611173565b8114611197575f5ffd5b50565b5f813590506111a881611184565b92915050565b5f602082840312156111c3576111c261114c565b5b5f6111d08482850161119a565b91505092915050565b5f8115159050919050565b6111ed816111d9565b82525050565b5f6020820190506112065f8301846111e4565b92915050565b61121581611173565b82525050565b5f60208201905061122e5f83018461120c565b92915050565b5f819050919050565b5f61125761125261124d84611154565b611234565b611154565b9050919050565b5f6112688261123d565b9050919050565b5f6112798261125e565b9050919050565b6112898161126f565b82525050565b5f6020820190506112a25f830184611280565b92915050565b5f6112b28261125e565b9050919050565b6112c2816112a8565b82525050565b5f6020820190506112db5f8301846112b9565b92915050565b5f819050919050565b6112f3816112e1565b81146112fd575f5ffd5b50565b5f8135905061130e816112ea565b92915050565b5f5f5f6060848603121561132b5761132a61114c565b5b5f6113388682870161119a565b935050602061134986828701611300565b925050604061135a8682870161119a565b9150509250925092565b5f82825260208201905092915050565b7f556e737570706f7274656420737461626c65636f696e000000000000000000005f82015250565b5f6113a8601683611364565b91506113b382611374565b602082019050919050565b5f6020820190508181035f8301526113d58161139c565b9050919050565b7f546f6b656e206e6f74206c6973746564000000000000000000000000000000005f82015250565b5f611410601083611364565b915061141b826113dc565b602082019050919050565b5f6020820190508181035f83015261143d81611404565b9050919050565b7f496e76616c696420726563697069656e740000000000000000000000000000005f82015250565b5f611478601183611364565b915061148382611444565b602082019050919050565b5f6020820190508181035f8301526114a58161146c565b9050919050565b7f5a65726f20616d6f756e740000000000000000000000000000000000000000005f82015250565b5f6114e0600b83611364565b91506114eb826114ac565b602082019050919050565b5f6020820190508181035f83015261150d816114d4565b9050919050565b7f496e70757420746f6b656e206e6f7420616c6c6f7765640000000000000000005f82015250565b5f611548601783611364565b915061155382611514565b602082019050919050565b5f6020820190508181035f8301526115758161153c565b9050919050565b7f526563697069656e7420686173206e6f20707265666572656e636500000000005f82015250565b5f6115b0601b83611364565b91506115bb8261157c565b602082019050919050565b5f6020820190508181035f8301526115dd816115a4565b9050919050565b6115ed816112e1565b82525050565b5f6060820190506116065f83018661120c565b61161360208301856115e4565b61162060408301846115e4565b949350505050565b7f5a65726f206164647265737300000000000000000000000000000000000000005f82015250565b5f61165c600c83611364565b915061166782611628565b602082019050919050565b5f6020820190508181035f83015261168981611650565b9050919050565b7f416c726561647920616c6c6f77656400000000000000000000000000000000005f82015250565b5f6116c4600f83611364565b91506116cf82611690565b602082019050919050565b5f6020820190508181035f8301526116f1816116b8565b9050919050565b5f60608201905061170b5f83018661120c565b611718602083018561120c565b61172560408301846115e4565b949350505050565b5f6040820190506117405f83018561120c565b61174d60208301846115e4565b9392505050565b5f61175e8261125e565b9050919050565b61176e81611754565b82525050565b5f62ffffff82169050919050565b61178b81611774565b82525050565b5f8160020b9050919050565b6117a681611791565b82525050565b5f6117b68261125e565b9050919050565b6117c6816117ac565b82525050565b60a082015f8201516117e05f850182611765565b5060208201516117f36020850182611765565b5060408201516118066040850182611782565b506060820151611819606085018261179d565b50608082015161182c60808501826117bd565b50505050565b5f610100820190506118465f8301876117cc565b61185360a08301866115e4565b61186060c08301856111e4565b61186d60e083018461120c565b95945050505050565b61187f816111d9565b8114611889575f5ffd5b50565b5f8151905061189a81611876565b92915050565b5f602082840312156118b5576118b461114c565b5b5f6118c28482850161188c565b91505092915050565b5f81519050919050565b5f82825260208201905092915050565b8281835e5f83830152505050565b5f601f19601f8301169050919050565b5f61190d826118cb565b61191781856118d5565b93506119278185602086016118e5565b611930816118f3565b840191505092915050565b5f60408201905061194e5f83018561120c565b81810360208301526119608184611903565b90509392505050565b5f6020820190508181035f8301526119818184611903565b905092915050565b5f5ffd5b5f5ffd5b7f4e487b71000000000000000000000000000000000000000000000000000000005f52604160045260245ffd5b6119c7826118f3565b810181811067ffffffffffffffff821117156119e6576119e5611991565b5b80604052505050565b5f6119f8611143565b9050611a0482826119be565b919050565b5f67ffffffffffffffff821115611a2357611a22611991565b5b611a2c826118f3565b9050602081019050919050565b5f611a4b611a4684611a09565b6119ef565b905082815260208101848484011115611a6757611a6661198d565b5b611a728482856118e5565b509392505050565b5f82601f830112611a8e57611a8d611989565b5b8151611a9e848260208601611a39565b91505092915050565b5f60208284031215611abc57611abb61114c565b5b5f82015167ffffffffffffffff811115611ad957611ad8611150565b5b611ae584828501611a7a565b91505092915050565b5f819050919050565b611b0081611aee565b8114611b0a575f5ffd5b50565b5f81519050611b1b81611af7565b92915050565b5f60208284031215611b3657611b3561114c565b5b5f611b4384828501611b0d565b91505092915050565b7f556e657870656374656420706f7369746976652064656c7461000000000000005f82015250565b5f611b80601983611364565b9150611b8b82611b4c565b602082019050919050565b5f6020820190508181035f830152611bad81611b74565b9050919050565b7f4e487b71000000000000000000000000000000000000000000000000000000005f52601160045260245ffd5b5f611beb82611aee565b91507f80000000000000000000000000000000000000000000000000000000000000008203611c1d57611c1c611bb4565b5b815f039050919050565b7f53776170206661696c65640000000000000000000000000000000000000000005f82015250565b5f611c5b600b83611364565b9150611c6682611c27565b602082019050919050565b5f6020820190508181035f830152611c8881611c4f565b905091905056fea2646970667358221220c00919814a33776934359132026f5315eb7dafe64dbb8b27c2e048ba2f2cb3d364736f6c634300081c0033","linkReferences":{}},"methodIdentifiers":{"addStablecoin(address)":"0418945a","isAllowedStablecoin(address)":"2258f8f8","owner()":"8da5cb5b","pay(address,uint256,address)":"f0fcc6bb","poolManager()":"dc4c90d3","preferredStablecoin(address)":"998490f5","removeStablecoin(address)":"3b947d2b","renounceOwnership()":"715018a6","setPreferredStablecoin(address)":"024fce40","swapHook()":"c2dbba5f","transferOwnership(address)":"f2fde38b"},"id":0}