{"abi":[{"type":"constructor","inputs":[{"name":"_poolManager","type":"address","internalType":"address"}],"stateMutability":"nonpayable"},{"type":"function","name":"addStablecoin","inputs":[{"name":"token","type":"address","internalType":"address"}],"outputs":[],"stateMutability":"nonpayable"},{"type":"function","name":"isAllowedStablecoin","inputs":[{"name":"","type":"address","internalType":"address"}],"outputs":[{"name":"","type":"bool","internalType":"bool"}],"stateMutability":"view"},{"type":"function","name":"owner","inputs":[],"outputs":[{"name":"","type":"address","internalType":"address"}],"stateMutability":"view"},{"type":"function","name":"pay","inputs":[{"name":"to","type":"address","internalType":"address"},{"name":"amount","type":"uint256","internalType":"uint256"},{"name":"inputToken","type":"address","internalType":"address"}],"outputs":[],"stateMutability":"nonpayable"},{"type":"function","name":"poolManager","inputs":[],"outputs":[{"name":"","type":"address","internalType":"contract IPoolManager"}],"stateMutability":"view"},{"type":"function","name":"preferredStablecoin","inputs":[{"name":"","type":"address","internalType":"address"}],"outputs":[{"name":"","type":"address","internalType":"address"}],"stateMutability":"view"},{"type":"function","name":"removeStablecoin","inputs":[{"name":"token","type":"address","internalType":"address"}],"outputs":[],"stateMutability":"nonpayable"},{"type":"function","name":"renounceOwnership","inputs":[],"outputs":[],"stateMutability":"nonpayable"},{"type":"function","name":"setPreferredStablecoin","inputs":[{"name":"token","type":"address","internalType":"address"}],"outputs":[],"stateMutability":"nonpayable"},{"type":"function","name":"transferOwnership","inputs":[{"name":"newOwner","type":"address","internalType":"address"}],"outputs":[],"stateMutability":"nonpayable"},{"type":"event","name":"OwnershipTransferred","inputs":[{"name":"previousOwner","type":"address","indexed":true,"internalType":"address"},{"name":"newOwner","type":"address","indexed":true,"internalType":"address"}],"anonymous":false},{"type":"event","name":"PaymentExecuted","inputs":[{"name":"from","type":"address","indexed":true,"internalType":"address"},{"name":"to","type":"address","indexed":true,"internalType":"address"},{"name":"inputToken","type":"address","indexed":false,"internalType":"address"},{"name":"outputToken","type":"address","indexed":false,"internalType":"address"},{"name":"inputAmount","type":"uint256","indexed":false,"internalType":"uint256"},{"name":"outputAmount","type":"uint256","indexed":false,"internalType":"uint256"}],"anonymous":false},{"type":"event","name":"PreferenceSet","inputs":[{"name":"user","type":"address","indexed":true,"internalType":"address"},{"name":"token","type":"address","indexed":false,"internalType":"address"}],"anonymous":false},{"type":"event","name":"StablecoinAdded","inputs":[{"name":"token","type":"address","indexed":false,"internalType":"address"}],"anonymous":false},{"type":"event","name":"StablecoinRemoved","inputs":[{"name":"token","type":"address","indexed":false,"internalType":"address"}],"anonymous":false},{"type":"error","name":"OwnableInvalidOwner","inputs":[{"name":"owner","type":"address","internalType":"address"}]},{"type":"error","name":"OwnableUnauthorizedAccount","inputs":[{"name":"account","type":"address","internalType":"address"}]}],"bytecode":{"object":"0x60a060405234801561000f575f5ffd5b506040516112923803806112928339818101604052810190610031919061020b565b335f73ffffffffffffffffffffffffffffffffffffffff168173ffffffffffffffffffffffffffffffffffffffff16036100a2575f6040517f1e4fbdf70000000000000000000000000000000000000000000000000000000081526004016100999190610245565b60405180910390fd5b6100b1816100ec60201b60201c565b508073ffffffffffffffffffffffffffffffffffffffff1660808173ffffffffffffffffffffffffffffffffffffffff16815250505061025e565b5f5f5f9054906101000a900473ffffffffffffffffffffffffffffffffffffffff169050815f5f6101000a81548173ffffffffffffffffffffffffffffffffffffffff021916908373ffffffffffffffffffffffffffffffffffffffff1602179055508173ffffffffffffffffffffffffffffffffffffffff168173ffffffffffffffffffffffffffffffffffffffff167f8be0079c531659141344cd1fd0a4f28419497f9722a3daafe3b4186f6b6457e060405160405180910390a35050565b5f5ffd5b5f73ffffffffffffffffffffffffffffffffffffffff82169050919050565b5f6101da826101b1565b9050919050565b6101ea816101d0565b81146101f4575f5ffd5b50565b5f81519050610205816101e1565b92915050565b5f602082840312156102205761021f6101ad565b5b5f61022d848285016101f7565b91505092915050565b61023f816101d0565b82525050565b5f6020820190506102585f830184610236565b92915050565b60805161101c6102765f395f6104dc015261101c5ff3fe608060405234801561000f575f5ffd5b506004361061009c575f3560e01c80638da5cb5b116100645780638da5cb5b1461012e578063998490f51461014c578063dc4c90d31461017c578063f0fcc6bb1461019a578063f2fde38b146101b65761009c565b8063024fce40146100a05780630418945a146100bc5780632258f8f8146100d85780633b947d2b14610108578063715018a614610124575b5f5ffd5b6100ba60048036038101906100b59190610b02565b6101d2565b005b6100d660048036038101906100d19190610b02565b610327565b005b6100f260048036038101906100ed9190610b02565b6103bd565b6040516100ff9190610b47565b60405180910390f35b610122600480360381019061011d9190610b02565b6103da565b005b61012c610470565b005b610136610483565b6040516101439190610b6f565b60405180910390f35b61016660048036038101906101619190610b02565b6104aa565b6040516101739190610b6f565b60405180910390f35b6101846104da565b6040516101919190610be3565b60405180910390f35b6101b460048036038101906101af9190610c2f565b6104fe565b005b6101d060048036038101906101cb9190610b02565b610895565b005b60015f8273ffffffffffffffffffffffffffffffffffffffff1673ffffffffffffffffffffffffffffffffffffffff1681526020019081526020015f205f9054906101000a900460ff1661025b576040517f08c379a000000000000000000000000000000000000000000000000000000000815260040161025290610cd9565b60405180910390fd5b8060025f3373ffffffffffffffffffffffffffffffffffffffff1673ffffffffffffffffffffffffffffffffffffffff1681526020019081526020015f205f6101000a81548173ffffffffffffffffffffffffffffffffffffffff021916908373ffffffffffffffffffffffffffffffffffffffff1602179055503373ffffffffffffffffffffffffffffffffffffffff167f94751bc86f1de6164d5a59b5dc70310aa875f3b203d1d3123552119d90fe46fa8260405161031c9190610b6f565b60405180910390a250565b61032f610919565b6001805f8373ffffffffffffffffffffffffffffffffffffffff1673ffffffffffffffffffffffffffffffffffffffff1681526020019081526020015f205f6101000a81548160ff0219169083151502179055507f3db297c09c19972ba6a701ff373ab97e21ff1e4992e863c7abe44e9b2fed0847816040516103b29190610b6f565b60405180910390a150565b6001602052805f5260405f205f915054906101000a900460ff1681565b6103e2610919565b5f60015f8373ffffffffffffffffffffffffffffffffffffffff1673ffffffffffffffffffffffffffffffffffffffff1681526020019081526020015f205f6101000a81548160ff0219169083151502179055507f3302a1b37f04242bb55603f5449e7ecd690a35eef08ba1353c48c20e2aae9cda816040516104659190610b6f565b60405180910390a150565b610478610919565b6104815f6109a0565b565b5f5f5f9054906101000a900473ffffffffffffffffffffffffffffffffffffffff16905090565b6002602052805f5260405f205f915054906101000a900473ffffffffffffffffffffffffffffffffffffffff1681565b7f000000000000000000000000000000000000000000000000000000000000000081565b5f73ffffffffffffffffffffffffffffffffffffffff168373ffffffffffffffffffffffffffffffffffffffff160361056c576040517f08c379a000000000000000000000000000000000000000000000000000000000815260040161056390610d41565b60405180910390fd5b60015f8273ffffffffffffffffffffffffffffffffffffffff1673ffffffffffffffffffffffffffffffffffffffff1681526020019081526020015f205f9054906101000a900460ff166105f5576040517f08c379a00000000000000000000000000000000000000000000000000000000081526004016105ec90610da9565b60405180910390fd5b5f60025f8573ffffffffffffffffffffffffffffffffffffffff1673ffffffffffffffffffffffffffffffffffffffff1681526020019081526020015f205f9054906101000a900473ffffffffffffffffffffffffffffffffffffffff16905060015f8273ffffffffffffffffffffffffffffffffffffffff1673ffffffffffffffffffffffffffffffffffffffff1681526020019081526020015f205f9054906101000a900460ff166106de576040517f08c379a00000000000000000000000000000000000000000000000000000000081526004016106d590610e37565b60405180910390fd5b8173ffffffffffffffffffffffffffffffffffffffff166323b872dd3330866040518463ffffffff1660e01b815260040161071b93929190610e64565b6020604051808303815f875af1158015610737573d5f5f3e3d5ffd5b505050506040513d601f19601f8201168201806040525081019061075b9190610ec3565b505f8173ffffffffffffffffffffffffffffffffffffffff168373ffffffffffffffffffffffffffffffffffffffff1603610814578273ffffffffffffffffffffffffffffffffffffffff1663a9059cbb86866040518363ffffffff1660e01b81526004016107cb929190610eee565b6020604051808303815f875af11580156107e7573d5f5f3e3d5ffd5b505050506040513d601f19601f8201168201806040525081019061080b9190610ec3565b50839050610823565b61082083838688610a61565b90505b8473ffffffffffffffffffffffffffffffffffffffff163373ffffffffffffffffffffffffffffffffffffffff167f377a0fbc7c58e37c806f65d7ad27f89d6edcb3c5600a92f03de83b615d79d5c1858588866040516108869493929190610f15565b60405180910390a35050505050565b61089d610919565b5f73ffffffffffffffffffffffffffffffffffffffff168173ffffffffffffffffffffffffffffffffffffffff160361090d575f6040517f1e4fbdf70000000000000000000000000000000000000000000000000000000081526004016109049190610b6f565b60405180910390fd5b610916816109a0565b50565b610921610a9d565b73ffffffffffffffffffffffffffffffffffffffff1661093f610483565b73ffffffffffffffffffffffffffffffffffffffff161461099e57610962610a9d565b6040517f118cdaa70000000000000000000000000000000000000000000000000000000081526004016109959190610b6f565b60405180910390fd5b565b5f5f5f9054906101000a900473ffffffffffffffffffffffffffffffffffffffff169050815f5f6101000a81548173ffffffffffffffffffffffffffffffffffffffff021916908373ffffffffffffffffffffffffffffffffffffffff1602179055508173ffffffffffffffffffffffffffffffffffffffff168173ffffffffffffffffffffffffffffffffffffffff167f8be0079c531659141344cd1fd0a4f28419497f9722a3daafe3b4186f6b6457e060405160405180910390a35050565b5f6040517f08c379a0000000000000000000000000000000000000000000000000000000008152600401610a9490610fc8565b60405180910390fd5b5f33905090565b5f5ffd5b5f73ffffffffffffffffffffffffffffffffffffffff82169050919050565b5f610ad182610aa8565b9050919050565b610ae181610ac7565b8114610aeb575f5ffd5b50565b5f81359050610afc81610ad8565b92915050565b5f60208284031215610b1757610b16610aa4565b5b5f610b2484828501610aee565b91505092915050565b5f8115159050919050565b610b4181610b2d565b82525050565b5f602082019050610b5a5f830184610b38565b92915050565b610b6981610ac7565b82525050565b5f602082019050610b825f830184610b60565b92915050565b5f819050919050565b5f610bab610ba6610ba184610aa8565b610b88565b610aa8565b9050919050565b5f610bbc82610b91565b9050919050565b5f610bcd82610bb2565b9050919050565b610bdd81610bc3565b82525050565b5f602082019050610bf65f830184610bd4565b92915050565b5f819050919050565b610c0e81610bfc565b8114610c18575f5ffd5b50565b5f81359050610c2981610c05565b92915050565b5f5f5f60608486031215610c4657610c45610aa4565b5b5f610c5386828701610aee565b9350506020610c6486828701610c1b565b9250506040610c7586828701610aee565b9150509250925092565b5f82825260208201905092915050565b7f556e737570706f7274656420737461626c65636f696e000000000000000000005f82015250565b5f610cc3601683610c7f565b9150610cce82610c8f565b602082019050919050565b5f6020820190508181035f830152610cf081610cb7565b9050919050565b7f496e76616c696420726563697069656e740000000000000000000000000000005f82015250565b5f610d2b601183610c7f565b9150610d3682610cf7565b602082019050919050565b5f6020820190508181035f830152610d5881610d1f565b9050919050565b7f496e70757420746f6b656e206e6f7420616c6c6f7765640000000000000000005f82015250565b5f610d93601783610c7f565b9150610d9e82610d5f565b602082019050919050565b5f6020820190508181035f830152610dc081610d87565b9050919050565b7f526563697069656e7420686173206e6f2076616c696420707265666572656e635f8201527f6500000000000000000000000000000000000000000000000000000000000000602082015250565b5f610e21602183610c7f565b9150610e2c82610dc7565b604082019050919050565b5f6020820190508181035f830152610e4e81610e15565b9050919050565b610e5e81610bfc565b82525050565b5f606082019050610e775f830186610b60565b610e846020830185610b60565b610e916040830184610e55565b949350505050565b610ea281610b2d565b8114610eac575f5ffd5b50565b5f81519050610ebd81610e99565b92915050565b5f60208284031215610ed857610ed7610aa4565b5b5f610ee584828501610eaf565b91505092915050565b5f604082019050610f015f830185610b60565b610f0e6020830184610e55565b9392505050565b5f608082019050610f285f830187610b60565b610f356020830186610b60565b610f426040830185610e55565b610f4f6060830184610e55565b95945050505050565b7f556e69737761702056342073776170206e6f7420696d706c656d656e746564205f8201527f7965740000000000000000000000000000000000000000000000000000000000602082015250565b5f610fb2602383610c7f565b9150610fbd82610f58565b604082019050919050565b5f6020820190508181035f830152610fdf81610fa6565b905091905056fea26469706673582212201fa265e12a120d8ef25341f20a453eb49456b73c18831a70c0468b5a1d077d9464736f6c634300081c0033","linkReferences":{}},"methodIdentifiers":{"addStablecoin(address)":"0418945a","isAllowedStablecoin(address)":"2258f8f8","owner()":"8da5cb5b","pay(address,uint256,address)":"f0fcc6bb","poolManager()":"dc4c90d3","preferredStablecoin(address)":"998490f5","removeStablecoin(address)":"3b947d2b","renounceOwnership()":"715018a6","setPreferredStablecoin(address)":"024fce40","transferOwnership(address)":"f2fde38b"},"id":0}