{"abi":[{"type":"constructor","inputs":[{"name":"_poolManager","type":"address","internalType":"address"}],"stateMutability":"nonpayable"},{"type":"function","name":"addStablecoin","inputs":[{"name":"token","type":"address","internalType":"address"}],"outputs":[],"stateMutability":"nonpayable"},{"type":"function","name":"isAllowedStablecoin","inputs":[{"name":"","type":"address","internalType":"address"}],"outputs":[{"name":"","type":"bool","internalType":"bool"}],"stateMutability":"view"},{"type":"function","name":"owner","inputs":[],"outputs":[{"name":"","type":"address","internalType":"address"}],"stateMutability":"view"},{"type":"function","name":"pay","inputs":[{"name":"to","type":"address","internalType":"address"},{"name":"amount","type":"uint256","internalType":"uint256"},{"name":"inputToken","type":"address","internalType":"address"}],"outputs":[],"stateMutability":"nonpayable"},{"type":"function","name":"poolManager","inputs":[],"outputs":[{"name":"","type":"address","internalType":"contract IPoolManager"}],"stateMutability":"view"},{"type":"function","name":"preferredStablecoin","inputs":[{"name":"","type":"address","internalType":"address"}],"outputs":[{"name":"","type":"address","internalType":"address"}],"stateMutability":"view"},{"type":"function","name":"removeStablecoin","inputs":[{"name":"token","type":"address","internalType":"address"}],"outputs":[],"stateMutability":"nonpayable"},{"type":"function","name":"renounceOwnership","inputs":[],"outputs":[],"stateMutability":"nonpayable"},{"type":"function","name":"setPreferredStablecoin","inputs":[{"name":"token","type":"address","internalType":"address"}],"outputs":[],"stateMutability":"nonpayable"},{"type":"function","name":"transferOwnership","inputs":[{"name":"newOwner","type":"address","internalType":"address"}],"outputs":[],"stateMutability":"nonpayable"},{"type":"event","name":"OwnershipTransferred","inputs":[{"name":"previousOwner","type":"address","indexed":true,"internalType":"address"},{"name":"newOwner","type":"address","indexed":true,"internalType":"address"}],"anonymous":false},{"type":"event","name":"PaymentExecuted","inputs":[{"name":"from","type":"address","indexed":true,"internalType":"address"},{"name":"to","type":"address","indexed":true,"internalType":"address"},{"name":"inputToken","type":"address","indexed":true,"internalType":"address"},{"name":"outputToken","type":"address","indexed":false,"internalType":"address"},{"name":"inputAmount","type":"uint256","indexed":false,"internalType":"uint256"},{"name":"outputAmount","type":"uint256","indexed":false,"internalType":"uint256"}],"anonymous":false},{"type":"event","name":"PreferenceSet","inputs":[{"name":"user","type":"address","indexed":true,"internalType":"address"},{"name":"token","type":"address","indexed":false,"internalType":"address"}],"anonymous":false},{"type":"event","name":"StablecoinAdded","inputs":[{"name":"token","type":"address","indexed":false,"internalType":"address"}],"anonymous":false},{"type":"event","name":"StablecoinRemoved","inputs":[{"name":"token","type":"address","indexed":false,"internalType":"address"}],"anonymous":false},{"type":"error","name":"OwnableInvalidOwner","inputs":[{"name":"owner","type":"address","internalType":"address"}]},{"type":"error","name":"OwnableUnauthorizedAccount","inputs":[{"name":"account","type":"address","internalType":"address"}]},{"type":"error","name":"SafeERC20FailedOperation","inputs":[{"name":"token","type":"address","internalType":"address"}]}],"bytecode":{"object":"0x60a060405234801561000f575f5ffd5b5060405161178738038061178783398181016040528101906100319190610279565b335f73ffffffffffffffffffffffffffffffffffffffff168173ffffffffffffffffffffffffffffffffffffffff16036100a2575f6040517f1e4fbdf700000000000000000000000000000000000000000000000000000000815260040161009991906102b3565b60405180910390fd5b6100b18161015a60201b60201c565b505f73ffffffffffffffffffffffffffffffffffffffff168173ffffffffffffffffffffffffffffffffffffffff1603610120576040517f08c379a000000000000000000000000000000000000000000000000000000000815260040161011790610326565b60405180910390fd5b8073ffffffffffffffffffffffffffffffffffffffff1660808173ffffffffffffffffffffffffffffffffffffffff168152505050610344565b5f5f5f9054906101000a900473ffffffffffffffffffffffffffffffffffffffff169050815f5f6101000a81548173ffffffffffffffffffffffffffffffffffffffff021916908373ffffffffffffffffffffffffffffffffffffffff1602179055508173ffffffffffffffffffffffffffffffffffffffff168173ffffffffffffffffffffffffffffffffffffffff167f8be0079c531659141344cd1fd0a4f28419497f9722a3daafe3b4186f6b6457e060405160405180910390a35050565b5f5ffd5b5f73ffffffffffffffffffffffffffffffffffffffff82169050919050565b5f6102488261021f565b9050919050565b6102588161023e565b8114610262575f5ffd5b50565b5f815190506102738161024f565b92915050565b5f6020828403121561028e5761028d61021b565b5b5f61029b84828501610265565b91505092915050565b6102ad8161023e565b82525050565b5f6020820190506102c65f8301846102a4565b92915050565b5f82825260208201905092915050565b7f496e76616c696420506f6f6c4d616e61676572206164647265737300000000005f82015250565b5f610310601b836102cc565b915061031b826102dc565b602082019050919050565b5f6020820190508181035f83015261033d81610304565b9050919050565b60805161142b61035c5f395f61065d015261142b5ff3fe608060405234801561000f575f5ffd5b506004361061009c575f3560e01c80638da5cb5b116100645780638da5cb5b1461012e578063998490f51461014c578063dc4c90d31461017c578063f0fcc6bb1461019a578063f2fde38b146101b65761009c565b8063024fce40146100a05780630418945a146100bc5780632258f8f8146100d85780633b947d2b14610108578063715018a614610124575b5f5ffd5b6100ba60048036038101906100b59190610dd4565b6101d2565b005b6100d660048036038101906100d19190610dd4565b610327565b005b6100f260048036038101906100ed9190610dd4565b6104b5565b6040516100ff9190610e19565b60405180910390f35b610122600480360381019061011d9190610dd4565b6104d2565b005b61012c6105f1565b005b610136610604565b6040516101439190610e41565b60405180910390f35b61016660048036038101906101619190610dd4565b61062b565b6040516101739190610e41565b60405180910390f35b61018461065b565b6040516101919190610eb5565b60405180910390f35b6101b460048036038101906101af9190610f01565b61067f565b005b6101d060048036038101906101cb9190610dd4565b6109cb565b005b60015f8273ffffffffffffffffffffffffffffffffffffffff1673ffffffffffffffffffffffffffffffffffffffff1681526020019081526020015f205f9054906101000a900460ff1661025b576040517f08c379a000000000000000000000000000000000000000000000000000000000815260040161025290610fab565b60405180910390fd5b8060025f3373ffffffffffffffffffffffffffffffffffffffff1673ffffffffffffffffffffffffffffffffffffffff1681526020019081526020015f205f6101000a81548173ffffffffffffffffffffffffffffffffffffffff021916908373ffffffffffffffffffffffffffffffffffffffff1602179055503373ffffffffffffffffffffffffffffffffffffffff167f94751bc86f1de6164d5a59b5dc70310aa875f3b203d1d3123552119d90fe46fa8260405161031c9190610e41565b60405180910390a250565b61032f610a4f565b5f73ffffffffffffffffffffffffffffffffffffffff168173ffffffffffffffffffffffffffffffffffffffff160361039d576040517f08c379a000000000000000000000000000000000000000000000000000000000815260040161039490611013565b60405180910390fd5b60015f8273ffffffffffffffffffffffffffffffffffffffff1673ffffffffffffffffffffffffffffffffffffffff1681526020019081526020015f205f9054906101000a900460ff1615610427576040517f08c379a000000000000000000000000000000000000000000000000000000000815260040161041e9061107b565b60405180910390fd5b6001805f8373ffffffffffffffffffffffffffffffffffffffff1673ffffffffffffffffffffffffffffffffffffffff1681526020019081526020015f205f6101000a81548160ff0219169083151502179055507f3db297c09c19972ba6a701ff373ab97e21ff1e4992e863c7abe44e9b2fed0847816040516104aa9190610e41565b60405180910390a150565b6001602052805f5260405f205f915054906101000a900460ff1681565b6104da610a4f565b60015f8273ffffffffffffffffffffffffffffffffffffffff1673ffffffffffffffffffffffffffffffffffffffff1681526020019081526020015f205f9054906101000a900460ff16610563576040517f08c379a000000000000000000000000000000000000000000000000000000000815260040161055a906110e3565b60405180910390fd5b5f60015f8373ffffffffffffffffffffffffffffffffffffffff1673ffffffffffffffffffffffffffffffffffffffff1681526020019081526020015f205f6101000a81548160ff0219169083151502179055507f3302a1b37f04242bb55603f5449e7ecd690a35eef08ba1353c48c20e2aae9cda816040516105e69190610e41565b60405180910390a150565b6105f9610a4f565b6106025f610ad6565b565b5f5f5f9054906101000a900473ffffffffffffffffffffffffffffffffffffffff16905090565b6002602052805f5260405f205f915054906101000a900473ffffffffffffffffffffffffffffffffffffffff1681565b7f000000000000000000000000000000000000000000000000000000000000000081565b5f73ffffffffffffffffffffffffffffffffffffffff168373ffffffffffffffffffffffffffffffffffffffff16036106ed576040517f08c379a00000000000000000000000000000000000000000000000000000000081526004016106e49061114b565b60405180910390fd5b5f821161072f576040517f08c379a0000000000000000000000000000000000000000000000000000000008152600401610726906111b3565b60405180910390fd5b60015f8273ffffffffffffffffffffffffffffffffffffffff1673ffffffffffffffffffffffffffffffffffffffff1681526020019081526020015f205f9054906101000a900460ff166107b8576040517f08c379a00000000000000000000000000000000000000000000000000000000081526004016107af9061121b565b60405180910390fd5b5f60025f8573ffffffffffffffffffffffffffffffffffffffff1673ffffffffffffffffffffffffffffffffffffffff1681526020019081526020015f205f9054906101000a900473ffffffffffffffffffffffffffffffffffffffff16905060015f8273ffffffffffffffffffffffffffffffffffffffff1673ffffffffffffffffffffffffffffffffffffffff1681526020019081526020015f205f9054906101000a900460ff166108a1576040517f08c379a0000000000000000000000000000000000000000000000000000000008152600401610898906112a9565b60405180910390fd5b6108ce3330858573ffffffffffffffffffffffffffffffffffffffff16610b97909392919063ffffffff16565b5f8173ffffffffffffffffffffffffffffffffffffffff168373ffffffffffffffffffffffffffffffffffffffff16036109355761092d85858573ffffffffffffffffffffffffffffffffffffffff16610c199092919063ffffffff16565b839050610944565b61094183838688610c98565b90505b8273ffffffffffffffffffffffffffffffffffffffff168573ffffffffffffffffffffffffffffffffffffffff163373ffffffffffffffffffffffffffffffffffffffff167f377a0fbc7c58e37c806f65d7ad27f89d6edcb3c5600a92f03de83b615d79d5c18588866040516109bc939291906112d6565b60405180910390a45050505050565b6109d3610a4f565b5f73ffffffffffffffffffffffffffffffffffffffff168173ffffffffffffffffffffffffffffffffffffffff1603610a43575f6040517f1e4fbdf7000000000000000000000000000000000000000000000000000000008152600401610a3a9190610e41565b60405180910390fd5b610a4c81610ad6565b50565b610a57610cd4565b73ffffffffffffffffffffffffffffffffffffffff16610a75610604565b73ffffffffffffffffffffffffffffffffffffffff1614610ad457610a98610cd4565b6040517f118cdaa7000000000000000000000000000000000000000000000000000000008152600401610acb9190610e41565b60405180910390fd5b565b5f5f5f9054906101000a900473ffffffffffffffffffffffffffffffffffffffff169050815f5f6101000a81548173ffffffffffffffffffffffffffffffffffffffff021916908373ffffffffffffffffffffffffffffffffffffffff1602179055508173ffffffffffffffffffffffffffffffffffffffff168173ffffffffffffffffffffffffffffffffffffffff167f8be0079c531659141344cd1fd0a4f28419497f9722a3daafe3b4186f6b6457e060405160405180910390a35050565b610c13848573ffffffffffffffffffffffffffffffffffffffff166323b872dd868686604051602401610bcc9392919061130b565b604051602081830303815290604052915060e01b6020820180517bffffffffffffffffffffffffffffffffffffffffffffffffffffffff8381831617835250505050610cdb565b50505050565b610c93838473ffffffffffffffffffffffffffffffffffffffff1663a9059cbb8585604051602401610c4c929190611340565b604051602081830303815290604052915060e01b6020820180517bffffffffffffffffffffffffffffffffffffffffffffffffffffffff8381831617835250505050610cdb565b505050565b5f6040517f08c379a0000000000000000000000000000000000000000000000000000000008152600401610ccb906113d7565b60405180910390fd5b5f33905090565b5f5f60205f8451602086015f885af180610cfa576040513d5f823e3d81fd5b3d92505f519150505f8214610d13576001811415610d2e565b5f8473ffffffffffffffffffffffffffffffffffffffff163b145b15610d7057836040517f5274afe7000000000000000000000000000000000000000000000000000000008152600401610d679190610e41565b60405180910390fd5b50505050565b5f5ffd5b5f73ffffffffffffffffffffffffffffffffffffffff82169050919050565b5f610da382610d7a565b9050919050565b610db381610d99565b8114610dbd575f5ffd5b50565b5f81359050610dce81610daa565b92915050565b5f60208284031215610de957610de8610d76565b5b5f610df684828501610dc0565b91505092915050565b5f8115159050919050565b610e1381610dff565b82525050565b5f602082019050610e2c5f830184610e0a565b92915050565b610e3b81610d99565b82525050565b5f602082019050610e545f830184610e32565b92915050565b5f819050919050565b5f610e7d610e78610e7384610d7a565b610e5a565b610d7a565b9050919050565b5f610e8e82610e63565b9050919050565b5f610e9f82610e84565b9050919050565b610eaf81610e95565b82525050565b5f602082019050610ec85f830184610ea6565b92915050565b5f819050919050565b610ee081610ece565b8114610eea575f5ffd5b50565b5f81359050610efb81610ed7565b92915050565b5f5f5f60608486031215610f1857610f17610d76565b5b5f610f2586828701610dc0565b9350506020610f3686828701610eed565b9250506040610f4786828701610dc0565b9150509250925092565b5f82825260208201905092915050565b7f556e737570706f7274656420737461626c65636f696e000000000000000000005f82015250565b5f610f95601683610f51565b9150610fa082610f61565b602082019050919050565b5f6020820190508181035f830152610fc281610f89565b9050919050565b7f5a65726f206164647265737300000000000000000000000000000000000000005f82015250565b5f610ffd600c83610f51565b915061100882610fc9565b602082019050919050565b5f6020820190508181035f83015261102a81610ff1565b9050919050565b7f416c726561647920616c6c6f77656400000000000000000000000000000000005f82015250565b5f611065600f83610f51565b915061107082611031565b602082019050919050565b5f6020820190508181035f83015261109281611059565b9050919050565b7f4e6f7420696e20616c6c6f776c697374000000000000000000000000000000005f82015250565b5f6110cd601083610f51565b91506110d882611099565b602082019050919050565b5f6020820190508181035f8301526110fa816110c1565b9050919050565b7f496e76616c696420726563697069656e740000000000000000000000000000005f82015250565b5f611135601183610f51565b915061114082611101565b602082019050919050565b5f6020820190508181035f83015261116281611129565b9050919050565b7f416d6f756e74206d757374206265203e203000000000000000000000000000005f82015250565b5f61119d601283610f51565b91506111a882611169565b602082019050919050565b5f6020820190508181035f8301526111ca81611191565b9050919050565b7f496e70757420746f6b656e206e6f7420616c6c6f7765640000000000000000005f82015250565b5f611205601783610f51565b9150611210826111d1565b602082019050919050565b5f6020820190508181035f830152611232816111f9565b9050919050565b7f526563697069656e7420686173206e6f2076616c696420707265666572656e635f8201527f6500000000000000000000000000000000000000000000000000000000000000602082015250565b5f611293602183610f51565b915061129e82611239565b604082019050919050565b5f6020820190508181035f8301526112c081611287565b9050919050565b6112d081610ece565b82525050565b5f6060820190506112e95f830186610e32565b6112f660208301856112c7565b61130360408301846112c7565b949350505050565b5f60608201905061131e5f830186610e32565b61132b6020830185610e32565b61133860408301846112c7565b949350505050565b5f6040820190506113535f830185610e32565b61136060208301846112c7565b9392505050565b7f556e69737761702056342073776170206e6f7420696d706c656d656e746564205f8201527f7965740000000000000000000000000000000000000000000000000000000000602082015250565b5f6113c1602383610f51565b91506113cc82611367565b604082019050919050565b5f6020820190508181035f8301526113ee816113b5565b905091905056fea264697066735822122054d598a2b28c0f6b90854f941a993af95ee1db561d5da6c6503d95617b52401364736f6c634300081c0033","linkReferences":{}},"methodIdentifiers":{"addStablecoin(address)":"0418945a","isAllowedStablecoin(address)":"2258f8f8","owner()":"8da5cb5b","pay(address,uint256,address)":"f0fcc6bb","poolManager()":"dc4c90d3","preferredStablecoin(address)":"998490f5","removeStablecoin(address)":"3b947d2b","renounceOwnership()":"715018a6","setPreferredStablecoin(address)":"024fce40","transferOwnership(address)":"f2fde38b"},"id":0}