{"abi":[{"type":"constructor","inputs":[],"stateMutability":"nonpayable"},{"type":"function","name":"exchangeRates","inputs":[{"name":"","type":"address","internalType":"address"},{"name":"","type":"address","internalType":"address"}],"outputs":[{"name":"","type":"uint256","internalType":"uint256"}],"stateMutability":"view"},{"type":"function","name":"lock","inputs":[{"name":"data","type":"bytes","internalType":"bytes"}],"outputs":[{"name":"","type":"bytes","internalType":"bytes"}],"stateMutability":"nonpayable"},{"type":"function","name":"setExchangeRate","inputs":[{"name":"tokenIn","type":"address","internalType":"address"},{"name":"tokenOut","type":"address","internalType":"address"},{"name":"rate","type":"uint256","internalType":"uint256"}],"outputs":[],"stateMutability":"nonpayable"},{"type":"function","name":"swap","inputs":[{"name":"key","type":"tuple","internalType":"struct PoolKey","components":[{"name":"currency0","type":"address","internalType":"Currency"},{"name":"currency1","type":"address","internalType":"Currency"},{"name":"fee","type":"uint24","internalType":"uint24"},{"name":"tickSpacing","type":"int24","internalType":"int24"},{"name":"hooks","type":"address","internalType":"contract IHooks"}]},{"name":"params","type":"tuple","internalType":"struct MockPoolManager.SwapParams","components":[{"name":"zeroForOne","type":"bool","internalType":"bool"},{"name":"amountSpecified","type":"int256","internalType":"int256"},{"name":"sqrtPriceLimitX96","type":"uint160","internalType":"uint160"}]},{"name":"hookData","type":"bytes","internalType":"bytes"}],"outputs":[{"name":"","type":"int256","internalType":"BalanceDelta"}],"stateMutability":"nonpayable"}],"bytecode":{"object":"0x6080604052348015600e575f5ffd5b50610fc48061001c5f395ff3fe608060405234801561000f575f5ffd5b506004361061004a575f3560e01c8063503fa44f1461004e578063782aaeea1461007e578063815483191461009a578063f3cd914c146100ca575b5f5ffd5b610068600480360381019061006391906105d7565b6100fa565b604051610075919061062d565b60405180910390f35b61009860048036038101906100939190610670565b610119565b005b6100b460048036038101906100af9190610721565b61019a565b6040516100c191906107dc565b60405180910390f35b6100e460048036038101906100df9190610b77565b6102f5565b6040516100f19190610c1e565b60405180910390f35b5f602052815f5260405f20602052805f5260405f205f91509150505481565b805f5f8573ffffffffffffffffffffffffffffffffffffffff1673ffffffffffffffffffffffffffffffffffffffff1681526020019081526020015f205f8473ffffffffffffffffffffffffffffffffffffffff1673ffffffffffffffffffffffffffffffffffffffff1681526020019081526020015f2081905550505050565b60605f5f84848101906101ad9190610c72565b915091505f5f8373ffffffffffffffffffffffffffffffffffffffff16836040516024016101db91906107dc565b6040516020818303038152906040527fab6291fe000000000000000000000000000000000000000000000000000000007bffffffffffffffffffffffffffffffffffffffffffffffffffffffff19166020820180517bffffffffffffffffffffffffffffffffffffffffffffffffffffffff83818316178352505050506040516102659190610d06565b5f604051808303815f865af19150503d805f811461029e576040519150601f19603f3d011682016040523d82523d5f602084013e6102a3565b606091505b5091509150816102e8576040517f08c379a00000000000000000000000000000000000000000000000000000000081526004016102df90610d76565b60405180910390fd5b8094505050505092915050565b5f5f5f845f01511561031357855f0151915085602001519050610321565b85602001519150855f015190505b5f5f86602001511361034057856020015161033b90610dc1565b610346565b85602001515b90505f5f5f8573ffffffffffffffffffffffffffffffffffffffff1673ffffffffffffffffffffffffffffffffffffffff1681526020019081526020015f205f8473ffffffffffffffffffffffffffffffffffffffff1673ffffffffffffffffffffffffffffffffffffffff1681526020019081526020015f205490505f81036103cf57600190505b5f670de0b6b3a764000082846103e59190610e07565b6103ef9190610e75565b90508473ffffffffffffffffffffffffffffffffffffffff166323b872dd3330866040518463ffffffff1660e01b815260040161042e93929190610eb4565b6020604051808303815f875af115801561044a573d5f5f3e3d5ffd5b505050506040513d601f19601f8201168201806040525081019061046e9190610efd565b505f878060200190518101906104849190610f3c565b90505f73ffffffffffffffffffffffffffffffffffffffff168173ffffffffffffffffffffffffffffffffffffffff16036104bd573390505b8473ffffffffffffffffffffffffffffffffffffffff166340c10f1982846040518363ffffffff1660e01b81526004016104f8929190610f67565b5f604051808303815f87803b15801561050f575f5ffd5b505af1158015610521573d5f5f3e3d5ffd5b505050505f5f8a5f015115610544578591508361053d90610dc1565b9050610554565b8361054e90610dc1565b91508590505b608081901b8217985050505050505050509392505050565b5f604051905090565b5f5ffd5b5f5ffd5b5f73ffffffffffffffffffffffffffffffffffffffff82169050919050565b5f6105a68261057d565b9050919050565b6105b68161059c565b81146105c0575f5ffd5b50565b5f813590506105d1816105ad565b92915050565b5f5f604083850312156105ed576105ec610575565b5b5f6105fa858286016105c3565b925050602061060b858286016105c3565b9150509250929050565b5f819050919050565b61062781610615565b82525050565b5f6020820190506106405f83018461061e565b92915050565b61064f81610615565b8114610659575f5ffd5b50565b5f8135905061066a81610646565b92915050565b5f5f5f6060848603121561068757610686610575565b5b5f610694868287016105c3565b93505060206106a5868287016105c3565b92505060406106b68682870161065c565b9150509250925092565b5f5ffd5b5f5ffd5b5f5ffd5b5f5f83601f8401126106e1576106e06106c0565b5b8235905067ffffffffffffffff8111156106fe576106fd6106c4565b5b60208301915083600182028301111561071a576107196106c8565b5b9250929050565b5f5f6020838503121561073757610736610575565b5b5f83013567ffffffffffffffff81111561075457610753610579565b5b610760858286016106cc565b92509250509250929050565b5f81519050919050565b5f82825260208201905092915050565b8281835e5f83830152505050565b5f601f19601f8301169050919050565b5f6107ae8261076c565b6107b88185610776565b93506107c8818560208601610786565b6107d181610794565b840191505092915050565b5f6020820190508181035f8301526107f481846107a4565b905092915050565b5f5ffd5b7f4e487b71000000000000000000000000000000000000000000000000000000005f52604160045260245ffd5b61083682610794565b810181811067ffffffffffffffff8211171561085557610854610800565b5b80604052505050565b5f61086761056c565b9050610873828261082d565b919050565b6108818161059c565b811461088b575f5ffd5b50565b5f8135905061089c81610878565b92915050565b5f62ffffff82169050919050565b6108b9816108a2565b81146108c3575f5ffd5b50565b5f813590506108d4816108b0565b92915050565b5f8160020b9050919050565b6108ef816108da565b81146108f9575f5ffd5b50565b5f8135905061090a816108e6565b92915050565b5f61091a8261059c565b9050919050565b61092a81610910565b8114610934575f5ffd5b50565b5f8135905061094581610921565b92915050565b5f60a082840312156109605761095f6107fc565b5b61096a60a061085e565b90505f6109798482850161088e565b5f83015250602061098c8482850161088e565b60208301525060406109a0848285016108c6565b60408301525060606109b4848285016108fc565b60608301525060806109c884828501610937565b60808301525092915050565b5f8115159050919050565b6109e8816109d4565b81146109f2575f5ffd5b50565b5f81359050610a03816109df565b92915050565b5f819050919050565b610a1b81610a09565b8114610a25575f5ffd5b50565b5f81359050610a3681610a12565b92915050565b610a458161057d565b8114610a4f575f5ffd5b50565b5f81359050610a6081610a3c565b92915050565b5f60608284031215610a7b57610a7a6107fc565b5b610a85606061085e565b90505f610a94848285016109f5565b5f830152506020610aa784828501610a28565b6020830152506040610abb84828501610a52565b60408301525092915050565b5f5ffd5b5f67ffffffffffffffff821115610ae557610ae4610800565b5b610aee82610794565b9050602081019050919050565b828183375f83830152505050565b5f610b1b610b1684610acb565b61085e565b905082815260208101848484011115610b3757610b36610ac7565b5b610b42848285610afb565b509392505050565b5f82601f830112610b5e57610b5d6106c0565b5b8135610b6e848260208601610b09565b91505092915050565b5f5f5f6101208486031215610b8f57610b8e610575565b5b5f610b9c8682870161094b565b93505060a0610bad86828701610a66565b92505061010084013567ffffffffffffffff811115610bcf57610bce610579565b5b610bdb86828701610b4a565b9150509250925092565b5f819050919050565b5f610c08610c03610bfe84610a09565b610be5565b610a09565b9050919050565b610c1881610bee565b82525050565b5f602082019050610c315f830184610c0f565b92915050565b5f610c418261057d565b9050919050565b610c5181610c37565b8114610c5b575f5ffd5b50565b5f81359050610c6c81610c48565b92915050565b5f5f60408385031215610c8857610c87610575565b5b5f610c9585828601610c5e565b925050602083013567ffffffffffffffff811115610cb657610cb5610579565b5b610cc285828601610b4a565b9150509250929050565b5f81905092915050565b5f610ce08261076c565b610cea8185610ccc565b9350610cfa818560208601610786565b80840191505092915050565b5f610d118284610cd6565b915081905092915050565b5f82825260208201905092915050565b7f4c6f636b2063616c6c206661696c6564000000000000000000000000000000005f82015250565b5f610d60601083610d1c565b9150610d6b82610d2c565b602082019050919050565b5f6020820190508181035f830152610d8d81610d54565b9050919050565b7f4e487b71000000000000000000000000000000000000000000000000000000005f52601160045260245ffd5b5f610dcb82610a09565b91507f80000000000000000000000000000000000000000000000000000000000000008203610dfd57610dfc610d94565b5b815f039050919050565b5f610e1182610615565b9150610e1c83610615565b9250828202610e2a81610615565b91508282048414831517610e4157610e40610d94565b5b5092915050565b7f4e487b71000000000000000000000000000000000000000000000000000000005f52601260045260245ffd5b5f610e7f82610615565b9150610e8a83610615565b925082610e9a57610e99610e48565b5b828204905092915050565b610eae8161059c565b82525050565b5f606082019050610ec75f830186610ea5565b610ed46020830185610ea5565b610ee1604083018461061e565b949350505050565b5f81519050610ef7816109df565b92915050565b5f60208284031215610f1257610f11610575565b5b5f610f1f84828501610ee9565b91505092915050565b5f81519050610f3681610c48565b92915050565b5f60208284031215610f5157610f50610575565b5b5f610f5e84828501610f28565b91505092915050565b5f604082019050610f7a5f830185610ea5565b610f87602083018461061e565b939250505056fea26469706673582212202ad783f61920a7164669da8bbbdce516797c95baffdf96ea6542a49219ede62d64736f6c634300081c0033","linkReferences":{}},"methodIdentifiers":{"exchangeRates(address,address)":"503fa44f","lock(bytes)":"81548319","setExchangeRate(address,address,uint256)":"782aaeea","swap((address,address,uint24,int24,address),(bool,int256,uint160),bytes)":"f3cd914c"},"id":5}